{
  "contractName": "RestrictedToken",
  "abi": [
    {
      "constant": true,
      "inputs": [],
      "name": "name",
      "outputs": [
        {
          "name": "",
          "type": "string"
        }
      ],
      "payable": false,
      "stateMutability": "view",
      "type": "function"
    },
    {
      "constant": false,
      "inputs": [
        {
          "name": "spender",
          "type": "address"
        },
        {
          "name": "tokens",
          "type": "uint256"
        }
      ],
      "name": "approve",
      "outputs": [
        {
          "name": "success",
          "type": "bool"
        }
      ],
      "payable": false,
      "stateMutability": "nonpayable",
      "type": "function"
    },
    {
      "constant": false,
      "inputs": [
        {
          "name": "owner_",
          "type": "address"
        }
      ],
      "name": "setOwner",
      "outputs": [],
      "payable": false,
      "stateMutability": "nonpayable",
      "type": "function"
    },
    {
      "constant": true,
      "inputs": [],
      "name": "totalSupply",
      "outputs": [
        {
          "name": "",
          "type": "uint256"
        }
      ],
      "payable": false,
      "stateMutability": "view",
      "type": "function"
    },
    {
      "constant": false,
      "inputs": [
        {
          "name": "from",
          "type": "address"
        },
        {
          "name": "to",
          "type": "address"
        },
        {
          "name": "tokens",
          "type": "uint256"
        }
      ],
      "name": "transferFrom",
      "outputs": [
        {
          "name": "success",
          "type": "bool"
        }
      ],
      "payable": false,
      "stateMutability": "nonpayable",
      "type": "function"
    },
    {
      "constant": true,
      "inputs": [
        {
          "name": "",
          "type": "address"
        }
      ],
      "name": "balances",
      "outputs": [
        {
          "name": "",
          "type": "uint256"
        }
      ],
      "payable": false,
      "stateMutability": "view",
      "type": "function"
    },
    {
      "constant": true,
      "inputs": [],
      "name": "decimals",
      "outputs": [
        {
          "name": "",
          "type": "uint8"
        }
      ],
      "payable": false,
      "stateMutability": "view",
      "type": "function"
    },
    {
      "constant": false,
      "inputs": [
        {
          "name": "from",
          "type": "address"
        },
        {
          "name": "tokens",
          "type": "uint256"
        }
      ],
      "name": "recycle",
      "outputs": [
        {
          "name": "success",
          "type": "bool"
        }
      ],
      "payable": false,
      "stateMutability": "nonpayable",
      "type": "function"
    },
    {
      "constant": true,
      "inputs": [
        {
          "name": "src",
          "type": "address"
        }
      ],
      "name": "balanceOf",
      "outputs": [
        {
          "name": "balance",
          "type": "uint256"
        }
      ],
      "payable": false,
      "stateMutability": "view",
      "type": "function"
    },
    {
      "constant": true,
      "inputs": [],
      "name": "owner",
      "outputs": [
        {
          "name": "",
          "type": "address"
        }
      ],
      "payable": false,
      "stateMutability": "view",
      "type": "function"
    },
    {
      "constant": true,
      "inputs": [],
      "name": "symbol",
      "outputs": [
        {
          "name": "",
          "type": "string"
        }
      ],
      "payable": false,
      "stateMutability": "view",
      "type": "function"
    },
    {
      "constant": false,
      "inputs": [
        {
          "name": "to",
          "type": "address"
        },
        {
          "name": "tokens",
          "type": "uint256"
        }
      ],
      "name": "transfer",
      "outputs": [
        {
          "name": "",
          "type": "bool"
        }
      ],
      "payable": false,
      "stateMutability": "nonpayable",
      "type": "function"
    },
    {
      "constant": false,
      "inputs": [
        {
          "name": "spender",
          "type": "address"
        },
        {
          "name": "tokens",
          "type": "uint256"
        },
        {
          "name": "data",
          "type": "bytes"
        }
      ],
      "name": "approveAndCall",
      "outputs": [
        {
          "name": "success",
          "type": "bool"
        }
      ],
      "payable": false,
      "stateMutability": "nonpayable",
      "type": "function"
    },
    {
      "constant": true,
      "inputs": [
        {
          "name": "tokenOwner",
          "type": "address"
        },
        {
          "name": "spender",
          "type": "address"
        }
      ],
      "name": "allowance",
      "outputs": [
        {
          "name": "remaining",
          "type": "uint256"
        }
      ],
      "payable": false,
      "stateMutability": "view",
      "type": "function"
    },
    {
      "constant": true,
      "inputs": [],
      "name": "viewer",
      "outputs": [
        {
          "name": "",
          "type": "address"
        }
      ],
      "payable": false,
      "stateMutability": "view",
      "type": "function"
    },
    {
      "inputs": [
        {
          "name": "_name",
          "type": "string"
        },
        {
          "name": "_symbol",
          "type": "string"
        },
        {
          "name": "_decimals",
          "type": "uint8"
        },
        {
          "name": "_initalSupply",
          "type": "uint256"
        },
        {
          "name": "_viewer",
          "type": "address"
        }
      ],
      "payable": false,
      "stateMutability": "nonpayable",
      "type": "constructor"
    },
    {
      "payable": true,
      "stateMutability": "payable",
      "type": "fallback"
    },
    {
      "anonymous": false,
      "inputs": [
        {
          "indexed": true,
          "name": "owner",
          "type": "address"
        }
      ],
      "name": "LogSetOwner",
      "type": "event"
    },
    {
      "anonymous": false,
      "inputs": [
        {
          "indexed": true,
          "name": "from",
          "type": "address"
        },
        {
          "indexed": true,
          "name": "to",
          "type": "address"
        },
        {
          "indexed": false,
          "name": "tokens",
          "type": "uint256"
        }
      ],
      "name": "Transfer",
      "type": "event"
    },
    {
      "anonymous": false,
      "inputs": [
        {
          "indexed": true,
          "name": "tokenOwner",
          "type": "address"
        },
        {
          "indexed": true,
          "name": "spender",
          "type": "address"
        },
        {
          "indexed": false,
          "name": "tokens",
          "type": "uint256"
        }
      ],
      "name": "Approval",
      "type": "event"
    }
  ],
  "bytecode": "0x606060405234156200001057600080fd5b604051620010213803806200102183398101604052808051820191906020018051820191906020018051906020019091908051906020019091908051906020019091905050336000806101000a81548173ffffffffffffffffffffffffffffffffffffffff021916908373ffffffffffffffffffffffffffffffffffffffff1602179055503373ffffffffffffffffffffffffffffffffffffffff167fce241d7ca1f669fee44b6fc00b8eba2df3bb514eed0f6f668f8f89096e81ed9460405160405180910390a260008214151515620000e657fe5b600073ffffffffffffffffffffffffffffffffffffffff168173ffffffffffffffffffffffffffffffffffffffff16141515156200012057fe5b8460019080519060200190620001389291906200027d565b508360029080519060200190620001519291906200027d565b5082600360006101000a81548160ff021916908360ff16021790555080600560006101000a81548173ffffffffffffffffffffffffffffffffffffffff021916908373ffffffffffffffffffffffffffffffffffffffff160217905550600360009054906101000a900460ff1660ff16600a0a620001e983600454620002636401000000000262000ca0179091906401000000009004565b0260048190555060045460066000600560009054906101000a900473ffffffffffffffffffffffffffffffffffffffff1673ffffffffffffffffffffffffffffffffffffffff1673ffffffffffffffffffffffffffffffffffffffff1681526020019081526020016000208190555050505050506200032c565b600082828401915081101515156200027757fe5b92915050565b828054600181600116156101000203166002900490600052602060002090601f016020900481019282601f10620002c057805160ff1916838001178555620002f1565b82800160010185558215620002f1579182015b82811115620002f0578251825591602001919060010190620002d3565b5b50905062000300919062000304565b5090565b6200032991905b80821115620003255760008160009055506001016200030b565b5090565b90565b610ce5806200033c6000396000f3006060604052600436106100db576000357c0100000000000000000000000000000000000000000000000000000000900463ffffffff16806306fdde03146100e0578063095ea7b31461016e57806313af4035146101c857806318160ddd1461020157806323b872dd1461022a57806327e235e3146102a3578063313ce567146102f05780635d36d1821461031f57806370a08231146103795780638da5cb5b146103c657806395d89b411461041b578063a9059cbb146104a9578063cae9ca5114610503578063dd62ed3e146105a0578063f30878c11461060c575b600080fd5b34156100eb57600080fd5b6100f3610661565b6040518080602001828103825283818151815260200191508051906020019080838360005b83811015610133578082015181840152602081019050610118565b50505050905090810190601f1680156101605780820380516001836020036101000a031916815260200191505b509250505060405180910390f35b341561017957600080fd5b6101ae600480803573ffffffffffffffffffffffffffffffffffffffff169060200190919080359060200190919050506106ff565b604051808215151515815260200191505060405180910390f35b34156101d357600080fd5b6101ff600480803573ffffffffffffffffffffffffffffffffffffffff16906020019091905050610706565b005b341561020c57600080fd5b6102146107f7565b6040518082815260200191505060405180910390f35b341561023557600080fd5b610289600480803573ffffffffffffffffffffffffffffffffffffffff1690602001909190803573ffffffffffffffffffffffffffffffffffffffff16906020019091908035906020019091905050610801565b604051808215151515815260200191505060405180910390f35b34156102ae57600080fd5b6102da600480803573ffffffffffffffffffffffffffffffffffffffff16906020019091905050610808565b6040518082815260200191505060405180910390f35b34156102fb57600080fd5b610303610820565b604051808260ff1660ff16815260200191505060405180910390f35b341561032a57600080fd5b61035f600480803573ffffffffffffffffffffffffffffffffffffffff16906020019091908035906020019091905050610833565b604051808215151515815260200191505060405180910390f35b341561038457600080fd5b6103b0600480803573ffffffffffffffffffffffffffffffffffffffff1690602001909190505061090a565b6040518082815260200191505060405180910390f35b34156103d157600080fd5b6103d9610953565b604051808273ffffffffffffffffffffffffffffffffffffffff1673ffffffffffffffffffffffffffffffffffffffff16815260200191505060405180910390f35b341561042657600080fd5b61042e610978565b6040518080602001828103825283818151815260200191508051906020019080838360005b8381101561046e578082015181840152602081019050610453565b50505050905090810190601f16801561049b5780820380516001836020036101000a031916815260200191505b509250505060405180910390f35b34156104b457600080fd5b6104e9600480803573ffffffffffffffffffffffffffffffffffffffff16906020019091908035906020019091905050610a16565b604051808215151515815260200191505060405180910390f35b341561050e57600080fd5b610586600480803573ffffffffffffffffffffffffffffffffffffffff1690602001909190803590602001909190803590602001908201803590602001908080601f01602080910402602001604051908101604052809392919081815260200183838082843782019150505050505091905050610a5e565b604051808215151515815260200191505060405180910390f35b34156105ab57600080fd5b6105f6600480803573ffffffffffffffffffffffffffffffffffffffff1690602001909190803573ffffffffffffffffffffffffffffffffffffffff16906020019091905050610a65565b6040518082815260200191505060405180910390f35b341561061757600080fd5b61061f610a6c565b604051808273ffffffffffffffffffffffffffffffffffffffff1673ffffffffffffffffffffffffffffffffffffffff16815260200191505060405180910390f35b60018054600181600116156101000203166002900480601f0160208091040260200160405190810160405280929190818152602001828054600181600116156101000203166002900480156106f75780601f106106cc576101008083540402835291602001916106f7565b820191906000526020600020905b8154815290600101906020018083116106da57829003601f168201915b505050505081565b6000806000fd5b61070f33610a92565b151561071757fe5b600073ffffffffffffffffffffffffffffffffffffffff168173ffffffffffffffffffffffffffffffffffffffff161415151561075057fe5b806000806101000a81548173ffffffffffffffffffffffffffffffffffffffff021916908373ffffffffffffffffffffffffffffffffffffffff1602179055506000809054906101000a900473ffffffffffffffffffffffffffffffffffffffff1673ffffffffffffffffffffffffffffffffffffffff167fce241d7ca1f669fee44b6fc00b8eba2df3bb514eed0f6f668f8f89096e81ed9460405160405180910390a250565b6000600454905090565b6000806000fd5b60066020528060005260406000206000915090505481565b600360009054906101000a900460ff1681565b60008061083f33610a92565b151561084757fe5b829050600660008573ffffffffffffffffffffffffffffffffffffffff1673ffffffffffffffffffffffffffffffffffffffff168152602001908152602001600020548111156108d457600660008573ffffffffffffffffffffffffffffffffffffffff1673ffffffffffffffffffffffffffffffffffffffff1681526020019081526020016000205490505b61090184600560009054906101000a900473ffffffffffffffffffffffffffffffffffffffff1683610aeb565b91505092915050565b6000600660008373ffffffffffffffffffffffffffffffffffffffff1673ffffffffffffffffffffffffffffffffffffffff168152602001908152602001600020549050919050565b6000809054906101000a900473ffffffffffffffffffffffffffffffffffffffff1681565b60028054600181600116156101000203166002900480601f016020809104026020016040519081016040528092919081815260200182805460018160011615610100020316600290048015610a0e5780601f106109e357610100808354040283529160200191610a0e565b820191906000526020600020905b8154815290600101906020018083116109f157829003601f168201915b505050505081565b6000610a2133610a92565b1515610a2957fe5b610a56600560009054906101000a900473ffffffffffffffffffffffffffffffffffffffff168484610aeb565b905092915050565b6000806000fd5b6000806000fd5b600560009054906101000a900473ffffffffffffffffffffffffffffffffffffffff1681565b60008060009054906101000a900473ffffffffffffffffffffffffffffffffffffffff1673ffffffffffffffffffffffffffffffffffffffff168273ffffffffffffffffffffffffffffffffffffffff16149050919050565b6000610b3f82600660008773ffffffffffffffffffffffffffffffffffffffff1673ffffffffffffffffffffffffffffffffffffffff16815260200190815260200160002054610c8790919063ffffffff16565b600660008673ffffffffffffffffffffffffffffffffffffffff1673ffffffffffffffffffffffffffffffffffffffff16815260200190815260200160002081905550610bd482600660008673ffffffffffffffffffffffffffffffffffffffff1673ffffffffffffffffffffffffffffffffffffffff16815260200190815260200160002054610ca090919063ffffffff16565b600660008573ffffffffffffffffffffffffffffffffffffffff1673ffffffffffffffffffffffffffffffffffffffff168152602001908152602001600020819055508273ffffffffffffffffffffffffffffffffffffffff168473ffffffffffffffffffffffffffffffffffffffff167fddf252ad1be2c89b69c2b068fc378daa952ba7f163c4a11628f55a4df523b3ef846040518082815260200191505060405180910390a3600190509392505050565b60008282840391508111151515610c9a57fe5b92915050565b60008282840191508110151515610cb357fe5b929150505600a165627a7a723058200f032c0660430844607858bad778f7f5eb3efde9e01937a16a3a41b0be8291960029",
  "source": "pragma solidity ^0.4.17;\n\n// ----------------------------------------------------------------------------\n// Safe maths\n// ----------------------------------------------------------------------------\nlibrary SafeMath {\n    function add(uint a, uint b) internal pure returns (uint c) {\n        assert((c = a + b) >= a);\n    }\n    \n    function sub(uint a, uint b) internal pure returns (uint c) {\n        assert((c = a - b) <= a);\n    }\n    \n    function mul(uint a, uint b) internal pure returns (uint c) {\n        assert((c = a * b) >= a);\n    }\n    \n    function div(uint a, uint b) internal pure returns (uint c) {\n        assert(b > 0);\n        assert((c = a / b) <= a);\n    }\n}\n\n// ----------------------------------------------------------------------------\n// ERC Token Standard #20 Interface\n// https://github.com/ethereum/EIPs/blob/master/EIPS/eip-20-token-standard.md\n// ----------------------------------------------------------------------------\ncontract ERC20Interface {\n    function totalSupply() public constant returns (uint);\n    function balanceOf(address tokenOwner) public constant returns (uint balance);\n    function allowance(address tokenOwner, address spender) public constant returns (uint remaining);\n    function transfer(address to, uint tokens) public returns (bool success);\n    function approve(address spender, uint tokens) public returns (bool success);\n    function transferFrom(address from, address to, uint tokens) public returns (bool success);\n\n    event Transfer(address indexed from, address indexed to, uint tokens);\n    event Approval(address indexed tokenOwner, address indexed spender, uint tokens);\n}\n\ncontract DSAuthEvents {\n    event LogSetOwner     (address indexed owner);\n}\n\ncontract DSAuth is DSAuthEvents {\n    // DSAuthority  public  authority;\n    address      public  owner;\n\n    function DSAuth() public {\n        owner = msg.sender;\n        LogSetOwner(msg.sender);\n    }\n    \n    function setOwner(address owner_) public isOwner {\n        assert(owner_ != address(0));\n        \n        owner = owner_;\n        LogSetOwner(owner);\n    }\n\n    modifier isOwner {\n        assert(checkIsOwner(msg.sender));\n        _;\n    }\n\n    function checkIsOwner(address src) internal view returns (bool) {\n        return src == owner;\n    }\n}\n\ncontract RestrictedToken is ERC20Interface, DSAuth {\n    using SafeMath for uint;\n    \n    string public  name;\n    string public symbol;\n    uint8 public decimals;\n    uint initalSupply;\n    address public viewer;\n    \n    mapping (address => uint) public balances;\n    \n    function RestrictedToken(string _name, string _symbol, uint8 _decimals, uint _initalSupply, address _viewer) public {\n        assert(_initalSupply != 0);\n        assert(_viewer != address(0));\n        \n        name = _name;\n        symbol = _symbol;\n        decimals = _decimals;\n        viewer = _viewer;\n        \n        initalSupply = initalSupply.add(_initalSupply) * 10 ** uint256(decimals);\n        balances[viewer] = initalSupply;\n    }\n    \n    function totalSupply() public view returns (uint) {\n        return initalSupply;\n    }\n\n    function balanceOf(address src) public view returns (uint balance) {\n        return balances[src];\n    }\n\n    function transfer(address to, uint tokens) public isOwner returns (bool) {\n        return _transfer(viewer, to, tokens);\n    }\n    \n    function _transfer(address from, address to, uint tokens) internal returns (bool) {\n        balances[from] = balances[from].sub(tokens);\n        balances[to] = balances[to].add(tokens);\n        Transfer(from, to, tokens);\n        \n        return true;\n    }\n\n    function recycle(address from, uint tokens) public isOwner returns (bool success) {\n        uint recycling = tokens;\n        \n        if (recycling > balances[from]) {\n            recycling = balances[from];\n        }\n        \n        return _transfer(from, viewer, recycling);\n    }\n\n    function () public payable {\n        revert();\n    }\n\n    function approve(address spender, uint tokens) public returns (bool success) {\n        revert();\n    }\n\n    function allowance(address tokenOwner, address spender) public constant returns (uint remaining) {\n        revert();\n    }\n\n    function transferFrom(address from, address to, uint tokens) public returns (bool success) {\n        revert();\n    }\n\n    function approveAndCall(address spender, uint tokens, bytes data) public returns (bool success) {\n        revert();\n    }\n}\n\ncontract DividendContract is DSAuth {\n    using SafeMath for uint;\n    \n    RestrictedToken public myToken;\n    uint public assignableSupply;\n    uint public assignedAmount;\n    uint public rangeInDay;\n    \n    struct Reward {\n        uint val;\n        uint deadline;\n    }\n    \n    struct Employee {\n        bool isValid;\n        uint totalReward;\n        Reward[] rewards;\n    }\n    \n    mapping (address => Employee) public employees;\n    \n    function DividendContract(string _name, string _symbol, uint8 _decimals, uint _initalSupply, uint _rangeInDay) public {\n        assert(_initalSupply != 0);\n        assert(_rangeInDay != 0);\n        \n        rangeInDay = _rangeInDay * 1 days;\n        myToken = new RestrictedToken(_name, _symbol, _decimals, _initalSupply, msg.sender);\n        \n        assignableSupply = _initalSupply;\n        assignedAmount = 0;\n    }\n    \n    event AddEmplyee(address src);\n    event RemoveEmplyee(address src, uint recycling);\n    event RewardEmployee(address src, uint amount);\n    event RecycleReward(address src, uint recycling);\n    \n    function addEmplyee(address src) public isOwner {\n        assert(src != address(0));\n        assert(!employees[src].isValid);\n        \n        Employee storage employee = employees[src];\n        employee.isValid = true;\n        employee.totalReward = 0;\n        delete employee.rewards;\n        \n        assert(employee.isValid);\n        assert(employee.totalReward == 0);\n        assert(employee.rewards.length == 0);\n        \n        AddEmplyee(src);\n    }\n    \n    function removeEmplyee(address src) public isOwner {\n        assert(src != address(0));\n        assert(employees[src].isValid);\n        \n        Employee storage employee = employees[src];\n        uint amount = employee.totalReward;\n        \n        if (amount > 0) {\n            myToken.recycle(src, amount);\n            assignedAmount = assignedAmount.sub(amount);\n        }\n        \n        employee.isValid = false;\n        employee.totalReward = 0;\n        delete employee.rewards;\n        \n        assert(!employee.isValid);\n        assert(employee.totalReward == 0);\n        assert(employee.rewards.length == 0);\n        \n        delete employees[src];\n        \n        RemoveEmplyee(src, amount);\n    }\n    \n    function rewardEmployee(address src, uint amount) public isOwner {\n        assert(assignableSupply >= assignedAmount.add(amount));\n        assert(src != address(0));\n        assert(employees[src].isValid);\n        \n        myToken.transfer(src, amount);\n        assignedAmount = assignedAmount.add(amount);\n        \n        Employee storage employee = employees[src];\n        employee.totalReward = employee.totalReward.add(amount);\n        employee.rewards.push(Reward({\n           val: amount, deadline: calDeadline() \n        }));\n        \n        RewardEmployee(src, amount);\n    }\n    \n    function calDeadline() internal view returns (uint) {\n        return now.add(rangeInDay);\n    }\n    \n    function rewardEmployees(address[] addresses, uint[] amounts) public isOwner {\n        require(addresses.length == amounts.length);\n        \n        uint len = addresses.length;\n        \n        for (uint i = 0; i < len; ++i) {\n            rewardEmployee(addresses[i], amounts[i]);\n        }\n    }\n    \n    function recycleRewardFromEmployees(address[] addresses) public isOwner {\n        uint len = addresses.length;\n        \n        for (uint i = 0; i < len; ++i) {\n            recycleRewardFromEmployee(addresses[i]);\n        }\n    }\n    \n    function recycleRewardFromEmployee(address src) public isOwner {\n        assert(src != address(0));\n        assert(employees[src].isValid);\n        \n        Employee storage employee = employees[src];\n        \n        uint recycling = 0;\n        \n        Reward[] storage rewards = employee.rewards;\n        uint len = rewards.length;\n        uint count = 0;\n        \n        for (uint i = 0; i < len; ++i) {\n            if (now > rewards[i].deadline) {\n                recycling = recycling.add(rewards[i].val);\n                myToken.recycle(src, rewards[i].val);\n                \n                ++count;\n            }\n        }\n        \n        if (count == 0) {\n            return;\n        }\n        \n        if (count == len) {\n            delete employee.rewards;\n        } else {\n            Reward[] memory tmp = new Reward[](len.sub(count));\n            \n            for (i = 0; i < tmp.length; ++i) {\n                tmp[i] = rewards[i + count];\n            }\n            \n            delete employee.rewards;\n            \n            for (i = 0; i < tmp.length; ++i) {\n                employee.rewards.push(tmp[i]);\n            }\n        }\n        \n        assignedAmount = assignedAmount.sub(recycling);\n        RecycleReward(src, recycling);\n    }\n}\n",
  "sourcePath": "/Users/wanghuazhou/git/Dividend/contracts/DividendContract.sol",
  "compiler": {
    "name": "solc",
    "version": "0.4.18+commit.9cf6e910.Emscripten.clang"
  },
  "schemaVersion": "1.0.1",
  "updatedAt": "2018-03-11T23:50:53.721Z"
}